{
  "_format": "hh-sol-artifact-1",
  "contractName": "FlocLoyaltyToken",
  "sourceName": "contracts/FlocLoyaltyToken.sol",
  "abi": [
    {
      "inputs": [],
      "stateMutability": "nonpayable",
      "type": "constructor"
    },
    {
      "inputs": [],
      "name": "AccessControlBadConfirmation",
      "type": "error"
    },
    {
      "inputs": [
        {
          "internalType": "address",
          "name": "account",
          "type": "address"
        },
        {
          "internalType": "bytes32",
          "name": "neededRole",
          "type": "bytes32"
        }
      ],
      "name": "AccessControlUnauthorizedAccount",
      "type": "error"
    },
    {
      "inputs": [
        {
          "internalType": "address",
          "name": "spender",
          "type": "address"
        },
        {
          "internalType": "uint256",
          "name": "allowance",
          "type": "uint256"
        },
        {
          "internalType": "uint256",
          "name": "needed",
          "type": "uint256"
        }
      ],
      "name": "ERC20InsufficientAllowance",
      "type": "error"
    },
    {
      "inputs": [
        {
          "internalType": "address",
          "name": "sender",
          "type": "address"
        },
        {
          "internalType": "uint256",
          "name": "balance",
          "type": "uint256"
        },
        {
          "internalType": "uint256",
          "name": "needed",
          "type": "uint256"
        }
      ],
      "name": "ERC20InsufficientBalance",
      "type": "error"
    },
    {
      "inputs": [
        {
          "internalType": "address",
          "name": "approver",
          "type": "address"
        }
      ],
      "name": "ERC20InvalidApprover",
      "type": "error"
    },
    {
      "inputs": [
        {
          "internalType": "address",
          "name": "receiver",
          "type": "address"
        }
      ],
      "name": "ERC20InvalidReceiver",
      "type": "error"
    },
    {
      "inputs": [
        {
          "internalType": "address",
          "name": "sender",
          "type": "address"
        }
      ],
      "name": "ERC20InvalidSender",
      "type": "error"
    },
    {
      "inputs": [
        {
          "internalType": "address",
          "name": "spender",
          "type": "address"
        }
      ],
      "name": "ERC20InvalidSpender",
      "type": "error"
    },
    {
      "inputs": [],
      "name": "EnforcedPause",
      "type": "error"
    },
    {
      "inputs": [],
      "name": "ExpectedPause",
      "type": "error"
    },
    {
      "anonymous": false,
      "inputs": [
        {
          "indexed": true,
          "internalType": "address",
          "name": "owner",
          "type": "address"
        },
        {
          "indexed": true,
          "internalType": "address",
          "name": "spender",
          "type": "address"
        },
        {
          "indexed": false,
          "internalType": "uint256",
          "name": "value",
          "type": "uint256"
        }
      ],
      "name": "Approval",
      "type": "event"
    },
    {
      "anonymous": false,
      "inputs": [
        {
          "indexed": false,
          "internalType": "address",
          "name": "account",
          "type": "address"
        }
      ],
      "name": "Paused",
      "type": "event"
    },
    {
      "anonymous": false,
      "inputs": [
        {
          "indexed": true,
          "internalType": "bytes32",
          "name": "role",
          "type": "bytes32"
        },
        {
          "indexed": true,
          "internalType": "bytes32",
          "name": "previousAdminRole",
          "type": "bytes32"
        },
        {
          "indexed": true,
          "internalType": "bytes32",
          "name": "newAdminRole",
          "type": "bytes32"
        }
      ],
      "name": "RoleAdminChanged",
      "type": "event"
    },
    {
      "anonymous": false,
      "inputs": [
        {
          "indexed": true,
          "internalType": "bytes32",
          "name": "role",
          "type": "bytes32"
        },
        {
          "indexed": true,
          "internalType": "address",
          "name": "account",
          "type": "address"
        },
        {
          "indexed": true,
          "internalType": "address",
          "name": "sender",
          "type": "address"
        }
      ],
      "name": "RoleGranted",
      "type": "event"
    },
    {
      "anonymous": false,
      "inputs": [
        {
          "indexed": true,
          "internalType": "bytes32",
          "name": "role",
          "type": "bytes32"
        },
        {
          "indexed": true,
          "internalType": "address",
          "name": "account",
          "type": "address"
        },
        {
          "indexed": true,
          "internalType": "address",
          "name": "sender",
          "type": "address"
        }
      ],
      "name": "RoleRevoked",
      "type": "event"
    },
    {
      "anonymous": false,
      "inputs": [
        {
          "indexed": true,
          "internalType": "address",
          "name": "from",
          "type": "address"
        },
        {
          "indexed": true,
          "internalType": "address",
          "name": "to",
          "type": "address"
        },
        {
          "indexed": false,
          "internalType": "uint256",
          "name": "value",
          "type": "uint256"
        }
      ],
      "name": "Transfer",
      "type": "event"
    },
    {
      "anonymous": false,
      "inputs": [
        {
          "indexed": false,
          "internalType": "address",
          "name": "account",
          "type": "address"
        }
      ],
      "name": "Unpaused",
      "type": "event"
    },
    {
      "inputs": [],
      "name": "ADMIN_ROLE",
      "outputs": [
        {
          "internalType": "bytes32",
          "name": "",
          "type": "bytes32"
        }
      ],
      "stateMutability": "view",
      "type": "function"
    },
    {
      "inputs": [],
      "name": "ANALYST_ROLE",
      "outputs": [
        {
          "internalType": "bytes32",
          "name": "",
          "type": "bytes32"
        }
      ],
      "stateMutability": "view",
      "type": "function"
    },
    {
      "inputs": [],
      "name": "DEFAULT_ADMIN_ROLE",
      "outputs": [
        {
          "internalType": "bytes32",
          "name": "",
          "type": "bytes32"
        }
      ],
      "stateMutability": "view",
      "type": "function"
    },
    {
      "inputs": [
        {
          "internalType": "address",
          "name": "owner",
          "type": "address"
        },
        {
          "internalType": "address",
          "name": "spender",
          "type": "address"
        }
      ],
      "name": "allowance",
      "outputs": [
        {
          "internalType": "uint256",
          "name": "",
          "type": "uint256"
        }
      ],
      "stateMutability": "view",
      "type": "function"
    },
    {
      "inputs": [
        {
          "internalType": "address",
          "name": "spender",
          "type": "address"
        },
        {
          "internalType": "uint256",
          "name": "amount",
          "type": "uint256"
        }
      ],
      "name": "approve",
      "outputs": [
        {
          "internalType": "bool",
          "name": "",
          "type": "bool"
        }
      ],
      "stateMutability": "nonpayable",
      "type": "function"
    },
    {
      "inputs": [
        {
          "internalType": "address",
          "name": "account",
          "type": "address"
        }
      ],
      "name": "balanceOf",
      "outputs": [
        {
          "internalType": "uint256",
          "name": "",
          "type": "uint256"
        }
      ],
      "stateMutability": "view",
      "type": "function"
    },
    {
      "inputs": [
        {
          "internalType": "uint256",
          "name": "amount",
          "type": "uint256"
        }
      ],
      "name": "burn",
      "outputs": [],
      "stateMutability": "nonpayable",
      "type": "function"
    },
    {
      "inputs": [
        {
          "internalType": "address",
          "name": "account",
          "type": "address"
        }
      ],
      "name": "checkBalance",
      "outputs": [
        {
          "internalType": "uint256",
          "name": "",
          "type": "uint256"
        }
      ],
      "stateMutability": "view",
      "type": "function"
    },
    {
      "inputs": [],
      "name": "conversionRatio",
      "outputs": [
        {
          "internalType": "uint256",
          "name": "",
          "type": "uint256"
        }
      ],
      "stateMutability": "view",
      "type": "function"
    },
    {
      "inputs": [],
      "name": "decimals",
      "outputs": [
        {
          "internalType": "uint8",
          "name": "",
          "type": "uint8"
        }
      ],
      "stateMutability": "view",
      "type": "function"
    },
    {
      "inputs": [],
      "name": "flocToken",
      "outputs": [
        {
          "internalType": "contract IFlocToken",
          "name": "",
          "type": "address"
        }
      ],
      "stateMutability": "view",
      "type": "function"
    },
    {
      "inputs": [
        {
          "internalType": "bytes32",
          "name": "role",
          "type": "bytes32"
        }
      ],
      "name": "getRoleAdmin",
      "outputs": [
        {
          "internalType": "bytes32",
          "name": "",
          "type": "bytes32"
        }
      ],
      "stateMutability": "view",
      "type": "function"
    },
    {
      "inputs": [
        {
          "internalType": "bytes32",
          "name": "role",
          "type": "bytes32"
        },
        {
          "internalType": "address",
          "name": "account",
          "type": "address"
        }
      ],
      "name": "grantRole",
      "outputs": [],
      "stateMutability": "nonpayable",
      "type": "function"
    },
    {
      "inputs": [
        {
          "internalType": "bytes32",
          "name": "role",
          "type": "bytes32"
        },
        {
          "internalType": "address",
          "name": "account",
          "type": "address"
        }
      ],
      "name": "hasRole",
      "outputs": [
        {
          "internalType": "bool",
          "name": "",
          "type": "bool"
        }
      ],
      "stateMutability": "view",
      "type": "function"
    },
    {
      "inputs": [
        {
          "internalType": "address",
          "name": "to",
          "type": "address"
        },
        {
          "internalType": "uint256",
          "name": "amount",
          "type": "uint256"
        }
      ],
      "name": "mint",
      "outputs": [],
      "stateMutability": "nonpayable",
      "type": "function"
    },
    {
      "inputs": [],
      "name": "name",
      "outputs": [
        {
          "internalType": "string",
          "name": "",
          "type": "string"
        }
      ],
      "stateMutability": "view",
      "type": "function"
    },
    {
      "inputs": [],
      "name": "pause",
      "outputs": [],
      "stateMutability": "nonpayable",
      "type": "function"
    },
    {
      "inputs": [],
      "name": "paused",
      "outputs": [
        {
          "internalType": "bool",
          "name": "",
          "type": "bool"
        }
      ],
      "stateMutability": "view",
      "type": "function"
    },
    {
      "inputs": [
        {
          "internalType": "bytes32",
          "name": "role",
          "type": "bytes32"
        },
        {
          "internalType": "address",
          "name": "callerConfirmation",
          "type": "address"
        }
      ],
      "name": "renounceRole",
      "outputs": [],
      "stateMutability": "nonpayable",
      "type": "function"
    },
    {
      "inputs": [
        {
          "internalType": "bytes32",
          "name": "role",
          "type": "bytes32"
        },
        {
          "internalType": "address",
          "name": "account",
          "type": "address"
        }
      ],
      "name": "revokeRole",
      "outputs": [],
      "stateMutability": "nonpayable",
      "type": "function"
    },
    {
      "inputs": [
        {
          "internalType": "uint256",
          "name": "_newRatio",
          "type": "uint256"
        }
      ],
      "name": "setConversionRatio",
      "outputs": [],
      "stateMutability": "nonpayable",
      "type": "function"
    },
    {
      "inputs": [
        {
          "internalType": "address",
          "name": "_flocTokenAddress",
          "type": "address"
        }
      ],
      "name": "setflocTokenAddress",
      "outputs": [],
      "stateMutability": "nonpayable",
      "type": "function"
    },
    {
      "inputs": [
        {
          "internalType": "bytes4",
          "name": "interfaceId",
          "type": "bytes4"
        }
      ],
      "name": "supportsInterface",
      "outputs": [
        {
          "internalType": "bool",
          "name": "",
          "type": "bool"
        }
      ],
      "stateMutability": "view",
      "type": "function"
    },
    {
      "inputs": [
        {
          "internalType": "uint256",
          "name": "loyaltyAmount",
          "type": "uint256"
        }
      ],
      "name": "swapForFlocToken",
      "outputs": [],
      "stateMutability": "nonpayable",
      "type": "function"
    },
    {
      "inputs": [],
      "name": "symbol",
      "outputs": [
        {
          "internalType": "string",
          "name": "",
          "type": "string"
        }
      ],
      "stateMutability": "view",
      "type": "function"
    },
    {
      "inputs": [],
      "name": "totalSupply",
      "outputs": [
        {
          "internalType": "uint256",
          "name": "",
          "type": "uint256"
        }
      ],
      "stateMutability": "view",
      "type": "function"
    },
    {
      "inputs": [
        {
          "internalType": "address",
          "name": "to",
          "type": "address"
        },
        {
          "internalType": "uint256",
          "name": "amount",
          "type": "uint256"
        }
      ],
      "name": "transfer",
      "outputs": [
        {
          "internalType": "bool",
          "name": "",
          "type": "bool"
        }
      ],
      "stateMutability": "nonpayable",
      "type": "function"
    },
    {
      "inputs": [
        {
          "internalType": "address",
          "name": "from",
          "type": "address"
        },
        {
          "internalType": "address",
          "name": "to",
          "type": "address"
        },
        {
          "internalType": "uint256",
          "name": "amount",
          "type": "uint256"
        }
      ],
      "name": "transferFrom",
      "outputs": [
        {
          "internalType": "bool",
          "name": "",
          "type": "bool"
        }
      ],
      "stateMutability": "nonpayable",
      "type": "function"
    },
    {
      "inputs": [],
      "name": "unpause",
      "outputs": [],
      "stateMutability": "nonpayable",
      "type": "function"
    }
  ],
  "bytecode": "0x60806040523480156200001157600080fd5b506040518060400160405280601081526020017f466c6f634c6f79616c7479546f6b656e000000000000000000000000000000008152506040518060400160405280600381526020017f464c54000000000000000000000000000000000000000000000000000000000081525081600390816200008f9190620008cc565b508060049081620000a19190620008cc565b5050506000600560006101000a81548160ff021916908315150217905550620000fe33620000d46200019160201b60201c565b600a620000e2919062000b43565b620f4240620000f2919062000b94565b6200019a60201b60201c565b6003600881905550620001387fa49807205ce4d355092ef5a8a18f56e8913cf4a201fbe287825b095693c21775336200022760201b60201c565b506200018b7f708c6b3a1a43063fcff2ed11fff0d3410f7a7ac561e651ec7a63ecde338f76727fa49807205ce4d355092ef5a8a18f56e8913cf4a201fbe287825b095693c217756200032b60201b60201c565b62000ce7565b60006012905090565b600073ffffffffffffffffffffffffffffffffffffffff168273ffffffffffffffffffffffffffffffffffffffff16036200020f5760006040517fec442f0500000000000000000000000000000000000000000000000000000000815260040162000206919062000c24565b60405180910390fd5b62000223600083836200038f60201b60201c565b5050565b60006200023b8383620005bf60201b60201c565b620003205760016006600085815260200190815260200160002060000160008473ffffffffffffffffffffffffffffffffffffffff1673ffffffffffffffffffffffffffffffffffffffff16815260200190815260200160002060006101000a81548160ff021916908315150217905550620002bc6200062a60201b60201c565b73ffffffffffffffffffffffffffffffffffffffff168273ffffffffffffffffffffffffffffffffffffffff16847f2f8788117e7eff1d82e926ec794901d17c78024a50270940304540a733656f0d60405160405180910390a46001905062000325565b600090505b92915050565b60006200033e836200063260201b60201c565b90508160066000858152602001908152602001600020600101819055508181847fbd79b86ffe0ab8e8776151514217cd7cacd52c909f66475c3af44e129f0b00ff60405160405180910390a4505050565b600073ffffffffffffffffffffffffffffffffffffffff168373ffffffffffffffffffffffffffffffffffffffff1603620003e5578060026000828254620003d8919062000c41565b92505081905550620004bb565b60008060008573ffffffffffffffffffffffffffffffffffffffff1673ffffffffffffffffffffffffffffffffffffffff1681526020019081526020016000205490508181101562000474578381836040517fe450d38c0000000000000000000000000000000000000000000000000000000081526004016200046b9392919062000c8d565b60405180910390fd5b8181036000808673ffffffffffffffffffffffffffffffffffffffff1673ffffffffffffffffffffffffffffffffffffffff16815260200190815260200160002081905550505b600073ffffffffffffffffffffffffffffffffffffffff168273ffffffffffffffffffffffffffffffffffffffff160362000506578060026000828254039250508190555062000553565b806000808473ffffffffffffffffffffffffffffffffffffffff1673ffffffffffffffffffffffffffffffffffffffff168152602001908152602001600020600082825401925050819055505b8173ffffffffffffffffffffffffffffffffffffffff168373ffffffffffffffffffffffffffffffffffffffff167fddf252ad1be2c89b69c2b068fc378daa952ba7f163c4a11628f55a4df523b3ef83604051620005b2919062000cca565b60405180910390a3505050565b60006006600084815260200190815260200160002060000160008373ffffffffffffffffffffffffffffffffffffffff1673ffffffffffffffffffffffffffffffffffffffff16815260200190815260200160002060009054906101000a900460ff16905092915050565b600033905090565b600060066000838152602001908152602001600020600101549050919050565b600081519050919050565b7f4e487b7100000000000000000000000000000000000000000000000000000000600052604160045260246000fd5b7f4e487b7100000000000000000000000000000000000000000000000000000000600052602260045260246000fd5b60006002820490506001821680620006d457607f821691505b602082108103620006ea57620006e96200068c565b5b50919050565b60008190508160005260206000209050919050565b60006020601f8301049050919050565b600082821b905092915050565b600060088302620007547fffffffffffffffffffffffffffffffffffffffffffffffffffffffffffffffff8262000715565b62000760868362000715565b95508019841693508086168417925050509392505050565b6000819050919050565b6000819050919050565b6000620007ad620007a7620007a18462000778565b62000782565b62000778565b9050919050565b6000819050919050565b620007c9836200078c565b620007e1620007d882620007b4565b84845462000722565b825550505050565b600090565b620007f8620007e9565b62000805818484620007be565b505050565b5b818110156200082d5762000821600082620007ee565b6001810190506200080b565b5050565b601f8211156200087c576200084681620006f0565b620008518462000705565b8101602085101562000861578190505b62000879620008708562000705565b8301826200080a565b50505b505050565b600082821c905092915050565b6000620008a16000198460080262000881565b1980831691505092915050565b6000620008bc83836200088e565b9150826002028217905092915050565b620008d78262000652565b67ffffffffffffffff811115620008f357620008f26200065d565b5b620008ff8254620006bb565b6200090c82828562000831565b600060209050601f8311600181146200094457600084156200092f578287015190505b6200093b8582620008ae565b865550620009ab565b601f1984166200095486620006f0565b60005b828110156200097e5784890151825560018201915060208501945060208101905062000957565b868310156200099e57848901516200099a601f8916826200088e565b8355505b6001600288020188555050505b505050505050565b7f4e487b7100000000000000000000000000000000000000000000000000000000600052601160045260246000fd5b60008160011c9050919050565b6000808291508390505b600185111562000a415780860481111562000a195762000a18620009b3565b5b600185161562000a295780820291505b808102905062000a3985620009e2565b9450620009f9565b94509492505050565b60008262000a5c576001905062000b2f565b8162000a6c576000905062000b2f565b816001811462000a85576002811462000a905762000ac6565b600191505062000b2f565b60ff84111562000aa55762000aa4620009b3565b5b8360020a91508482111562000abf5762000abe620009b3565b5b5062000b2f565b5060208310610133831016604e8410600b841016171562000b005782820a90508381111562000afa5762000af9620009b3565b5b62000b2f565b62000b0f8484846001620009ef565b9250905081840481111562000b295762000b28620009b3565b5b81810290505b9392505050565b600060ff82169050919050565b600062000b508262000778565b915062000b5d8362000b36565b925062000b8c7fffffffffffffffffffffffffffffffffffffffffffffffffffffffffffffffff848462000a4a565b905092915050565b600062000ba18262000778565b915062000bae8362000778565b925082820262000bbe8162000778565b9150828204841483151762000bd85762000bd7620009b3565b5b5092915050565b600073ffffffffffffffffffffffffffffffffffffffff82169050919050565b600062000c0c8262000bdf565b9050919050565b62000c1e8162000bff565b82525050565b600060208201905062000c3b600083018462000c13565b92915050565b600062000c4e8262000778565b915062000c5b8362000778565b925082820190508082111562000c765762000c75620009b3565b5b92915050565b62000c878162000778565b82525050565b600060608201905062000ca4600083018662000c13565b62000cb3602083018562000c7c565b62000cc2604083018462000c7c565b949350505050565b600060208201905062000ce1600083018462000c7c565b92915050565b6121388062000cf76000396000f3fe608060405234801561001057600080fd5b50600436106101cf5760003560e01c80634f49a5991161010457806395d89b41116100a2578063bbbb0a8f11610071578063bbbb0a8f1461051e578063c8f3c6791461053c578063d547741f14610558578063dd62ed3e14610574576101cf565b806395d89b4114610494578063968bddbe146104b2578063a217fddf146104d0578063a9059cbb146104ee576101cf565b806370a08231116100de57806370a082311461040c57806375b238fc1461043c5780638456cb591461045a57806391d1485414610464576101cf565b80634f49a599146103a25780635c975abb146103be5780635f515226146103dc576101cf565b8063313ce567116101715780633745ff611161014b5780633745ff61146103445780633f4ba83a1461036057806340c10f191461036a57806342966c6814610386576101cf565b8063313ce567146102ec57806333fca8b11461030a57806336568abe14610328576101cf565b806318160ddd116101ad57806318160ddd1461025257806323b872dd14610270578063248a9ca3146102a05780632f2ff15d146102d0576101cf565b806301ffc9a7146101d457806306fdde0314610204578063095ea7b314610222575b600080fd5b6101ee60048036038101906101e99190611944565b6105a4565b6040516101fb919061198c565b60405180910390f35b61020c61061e565b6040516102199190611a37565b60405180910390f35b61023c60048036038101906102379190611aed565b6106b0565b604051610249919061198c565b60405180910390f35b61025a6106cc565b6040516102679190611b3c565b60405180910390f35b61028a60048036038101906102859190611b57565b6106d6565b604051610297919061198c565b60405180910390f35b6102ba60048036038101906102b59190611be0565b6106f4565b6040516102c79190611c1c565b60405180910390f35b6102ea60048036038101906102e59190611c37565b610714565b005b6102f4610736565b6040516103019190611c93565b60405180910390f35b61031261073f565b60405161031f9190611b3c565b60405180910390f35b610342600480360381019061033d9190611c37565b610745565b005b61035e60048036038101906103599190611cae565b6107c0565b005b610368610953565b005b610384600480360381019061037f9190611aed565b610988565b005b6103a0600480360381019061039b9190611cae565b6109c9565b005b6103bc60048036038101906103b79190611cae565b6109de565b005b6103c6610a5e565b6040516103d3919061198c565b60405180910390f35b6103f660048036038101906103f19190611cdb565b610a75565b6040516104039190611b3c565b60405180910390f35b61042660048036038101906104219190611cdb565b610ab2565b6040516104339190611b3c565b60405180910390f35b610444610afa565b6040516104519190611c1c565b60405180910390f35b610462610b1e565b005b61047e60048036038101906104799190611c37565b610b53565b60405161048b919061198c565b60405180910390f35b61049c610bbe565b6040516104a99190611a37565b60405180910390f35b6104ba610c50565b6040516104c79190611d67565b60405180910390f35b6104d8610c76565b6040516104e59190611c1c565b60405180910390f35b61050860048036038101906105039190611aed565b610c7d565b604051610515919061198c565b60405180910390f35b610526610c99565b6040516105339190611c1c565b60405180910390f35b61055660048036038101906105519190611cdb565b610cbd565b005b610572600480360381019061056d9190611c37565b610d2c565b005b61058e60048036038101906105899190611d82565b610d4e565b60405161059b9190611b3c565b60405180910390f35b60007f7965db0b000000000000000000000000000000000000000000000000000000007bffffffffffffffffffffffffffffffffffffffffffffffffffffffff1916827bffffffffffffffffffffffffffffffffffffffffffffffffffffffff19161480610617575061061682610dd5565b5b9050919050565b60606003805461062d90611df1565b80601f016020809104026020016040519081016040528092919081815260200182805461065990611df1565b80156106a65780601f1061067b576101008083540402835291602001916106a6565b820191906000526020600020905b81548152906001019060200180831161068957829003601f168201915b5050505050905090565b60006106ba610e3f565b6106c48383610e80565b905092915050565b6000600254905090565b60006106e0610e3f565b6106eb848484610ea3565b90509392505050565b600060066000838152602001908152602001600020600101549050919050565b61071d826106f4565b61072681610ed2565b6107308383610ee6565b50505050565b60006012905090565b60085481565b61074d610fd8565b73ffffffffffffffffffffffffffffffffffffffff168173ffffffffffffffffffffffffffffffffffffffff16146107b1576040517f6697b23200000000000000000000000000000000000000000000000000000000815260040160405180910390fd5b6107bb8282610fe0565b505050565b6107c8610e3f565b600073ffffffffffffffffffffffffffffffffffffffff16600760009054906101000a900473ffffffffffffffffffffffffffffffffffffffff1673ffffffffffffffffffffffffffffffffffffffff1603610859576040517f08c379a000000000000000000000000000000000000000000000000000000000815260040161085090611e6e565b60405180910390fd5b8061086333610ab2565b10156108a4576040517f08c379a000000000000000000000000000000000000000000000000000000000815260040161089b90611eda565b60405180910390fd5b6000600854826108b49190611f58565b90506108c033836110d3565b600760009054906101000a900473ffffffffffffffffffffffffffffffffffffffff1673ffffffffffffffffffffffffffffffffffffffff166340c10f1933836040518363ffffffff1660e01b815260040161091d929190611f98565b600060405180830381600087803b15801561093757600080fd5b505af115801561094b573d6000803e3d6000fd5b505050505050565b7fa49807205ce4d355092ef5a8a18f56e8913cf4a201fbe287825b095693c2177561097d81610ed2565b610985611155565b50565b7fa49807205ce4d355092ef5a8a18f56e8913cf4a201fbe287825b095693c217756109b281610ed2565b6109ba610e3f565b6109c483836111b8565b505050565b6109d1610e3f565b6109db33826110d3565b50565b6109e6610e3f565b7fa49807205ce4d355092ef5a8a18f56e8913cf4a201fbe287825b095693c21775610a1081610ed2565b60008211610a53576040517f08c379a0000000000000000000000000000000000000000000000000000000008152600401610a4a90612033565b60405180910390fd5b816008819055505050565b6000600560009054906101000a900460ff16905090565b60007f708c6b3a1a43063fcff2ed11fff0d3410f7a7ac561e651ec7a63ecde338f7672610aa181610ed2565b610aaa83610ab2565b915050919050565b60008060008373ffffffffffffffffffffffffffffffffffffffff1673ffffffffffffffffffffffffffffffffffffffff168152602001908152602001600020549050919050565b7fa49807205ce4d355092ef5a8a18f56e8913cf4a201fbe287825b095693c2177581565b7fa49807205ce4d355092ef5a8a18f56e8913cf4a201fbe287825b095693c21775610b4881610ed2565b610b5061123a565b50565b60006006600084815260200190815260200160002060000160008373ffffffffffffffffffffffffffffffffffffffff1673ffffffffffffffffffffffffffffffffffffffff16815260200190815260200160002060009054906101000a900460ff16905092915050565b606060048054610bcd90611df1565b80601f0160208091040260200160405190810160405280929190818152602001828054610bf990611df1565b8015610c465780601f10610c1b57610100808354040283529160200191610c46565b820191906000526020600020905b815481529060010190602001808311610c2957829003601f168201915b5050505050905090565b600760009054906101000a900473ffffffffffffffffffffffffffffffffffffffff1681565b6000801b81565b6000610c87610e3f565b610c91838361129d565b905092915050565b7f708c6b3a1a43063fcff2ed11fff0d3410f7a7ac561e651ec7a63ecde338f767281565b7fa49807205ce4d355092ef5a8a18f56e8913cf4a201fbe287825b095693c21775610ce781610ed2565b81600760006101000a81548173ffffffffffffffffffffffffffffffffffffffff021916908373ffffffffffffffffffffffffffffffffffffffff1602179055505050565b610d35826106f4565b610d3e81610ed2565b610d488383610fe0565b50505050565b6000600160008473ffffffffffffffffffffffffffffffffffffffff1673ffffffffffffffffffffffffffffffffffffffff16815260200190815260200160002060008373ffffffffffffffffffffffffffffffffffffffff1673ffffffffffffffffffffffffffffffffffffffff16815260200190815260200160002054905092915050565b60007f01ffc9a7000000000000000000000000000000000000000000000000000000007bffffffffffffffffffffffffffffffffffffffffffffffffffffffff1916827bffffffffffffffffffffffffffffffffffffffffffffffffffffffff1916149050919050565b610e47610a5e565b15610e7e576040517fd93c066500000000000000000000000000000000000000000000000000000000815260040160405180910390fd5b565b600080610e8b610fd8565b9050610e988185856112c0565b600191505092915050565b600080610eae610fd8565b9050610ebb8582856112d2565b610ec6858585611366565b60019150509392505050565b610ee381610ede610fd8565b61145a565b50565b6000610ef28383610b53565b610fcd5760016006600085815260200190815260200160002060000160008473ffffffffffffffffffffffffffffffffffffffff1673ffffffffffffffffffffffffffffffffffffffff16815260200190815260200160002060006101000a81548160ff021916908315150217905550610f6a610fd8565b73ffffffffffffffffffffffffffffffffffffffff168273ffffffffffffffffffffffffffffffffffffffff16847f2f8788117e7eff1d82e926ec794901d17c78024a50270940304540a733656f0d60405160405180910390a460019050610fd2565b600090505b92915050565b600033905090565b6000610fec8383610b53565b156110c85760006006600085815260200190815260200160002060000160008473ffffffffffffffffffffffffffffffffffffffff1673ffffffffffffffffffffffffffffffffffffffff16815260200190815260200160002060006101000a81548160ff021916908315150217905550611065610fd8565b73ffffffffffffffffffffffffffffffffffffffff168273ffffffffffffffffffffffffffffffffffffffff16847ff6391f5c32d9c69d2a47ea670b442974b53935d1edc7fd64eb21e047a839171b60405160405180910390a4600190506110cd565b600090505b92915050565b600073ffffffffffffffffffffffffffffffffffffffff168273ffffffffffffffffffffffffffffffffffffffff16036111455760006040517f96c6fd1e00000000000000000000000000000000000000000000000000000000815260040161113c9190612053565b60405180910390fd5b611151826000836114ab565b5050565b61115d6116d0565b6000600560006101000a81548160ff0219169083151502179055507f5db9ee0a495bf2e6ff9c91a7834c1ba4fdd244a5e8aa4e537bd38aeae4b073aa6111a1610fd8565b6040516111ae9190612053565b60405180910390a1565b600073ffffffffffffffffffffffffffffffffffffffff168273ffffffffffffffffffffffffffffffffffffffff160361122a5760006040517fec442f050000000000000000000000000000000000000000000000000000000081526004016112219190612053565b60405180910390fd5b611236600083836114ab565b5050565b611242610e3f565b6001600560006101000a81548160ff0219169083151502179055507f62e78cea01bee320cd4e420270b5ea74000d11b0c9f74754ebdbfc544b05a258611286610fd8565b6040516112939190612053565b60405180910390a1565b6000806112a8610fd8565b90506112b5818585611366565b600191505092915050565b6112cd8383836001611710565b505050565b60006112de8484610d4e565b90507fffffffffffffffffffffffffffffffffffffffffffffffffffffffffffffffff81146113605781811015611350578281836040517ffb8f41b20000000000000000000000000000000000000000000000000000000081526004016113479392919061206e565b60405180910390fd5b61135f84848484036000611710565b5b50505050565b600073ffffffffffffffffffffffffffffffffffffffff168373ffffffffffffffffffffffffffffffffffffffff16036113d85760006040517f96c6fd1e0000000000000000000000000000000000000000000000000000000081526004016113cf9190612053565b60405180910390fd5b600073ffffffffffffffffffffffffffffffffffffffff168273ffffffffffffffffffffffffffffffffffffffff160361144a5760006040517fec442f050000000000000000000000000000000000000000000000000000000081526004016114419190612053565b60405180910390fd5b6114558383836114ab565b505050565b6114648282610b53565b6114a75780826040517fe2517d3f00000000000000000000000000000000000000000000000000000000815260040161149e9291906120a5565b60405180910390fd5b5050565b600073ffffffffffffffffffffffffffffffffffffffff168373ffffffffffffffffffffffffffffffffffffffff16036114fd5780600260008282546114f191906120ce565b925050819055506115d0565b60008060008573ffffffffffffffffffffffffffffffffffffffff1673ffffffffffffffffffffffffffffffffffffffff16815260200190815260200160002054905081811015611589578381836040517fe450d38c0000000000000000000000000000000000000000000000000000000081526004016115809392919061206e565b60405180910390fd5b8181036000808673ffffffffffffffffffffffffffffffffffffffff1673ffffffffffffffffffffffffffffffffffffffff16815260200190815260200160002081905550505b600073ffffffffffffffffffffffffffffffffffffffff168273ffffffffffffffffffffffffffffffffffffffff16036116195780600260008282540392505081905550611666565b806000808473ffffffffffffffffffffffffffffffffffffffff1673ffffffffffffffffffffffffffffffffffffffff168152602001908152602001600020600082825401925050819055505b8173ffffffffffffffffffffffffffffffffffffffff168373ffffffffffffffffffffffffffffffffffffffff167fddf252ad1be2c89b69c2b068fc378daa952ba7f163c4a11628f55a4df523b3ef836040516116c39190611b3c565b60405180910390a3505050565b6116d8610a5e565b61170e576040517f8dfc202b00000000000000000000000000000000000000000000000000000000815260040160405180910390fd5b565b600073ffffffffffffffffffffffffffffffffffffffff168473ffffffffffffffffffffffffffffffffffffffff16036117825760006040517fe602df050000000000000000000000000000000000000000000000000000000081526004016117799190612053565b60405180910390fd5b600073ffffffffffffffffffffffffffffffffffffffff168373ffffffffffffffffffffffffffffffffffffffff16036117f45760006040517f94280d620000000000000000000000000000000000000000000000000000000081526004016117eb9190612053565b60405180910390fd5b81600160008673ffffffffffffffffffffffffffffffffffffffff1673ffffffffffffffffffffffffffffffffffffffff16815260200190815260200160002060008573ffffffffffffffffffffffffffffffffffffffff1673ffffffffffffffffffffffffffffffffffffffff1681526020019081526020016000208190555080156118e1578273ffffffffffffffffffffffffffffffffffffffff168473ffffffffffffffffffffffffffffffffffffffff167f8c5be1e5ebec7d5bd14f71427d1e84f3dd0314c0f7b2291e5b200ac8c7c3b925846040516118d89190611b3c565b60405180910390a35b50505050565b600080fd5b60007fffffffff0000000000000000000000000000000000000000000000000000000082169050919050565b611921816118ec565b811461192c57600080fd5b50565b60008135905061193e81611918565b92915050565b60006020828403121561195a576119596118e7565b5b60006119688482850161192f565b91505092915050565b60008115159050919050565b61198681611971565b82525050565b60006020820190506119a1600083018461197d565b92915050565b600081519050919050565b600082825260208201905092915050565b60005b838110156119e15780820151818401526020810190506119c6565b60008484015250505050565b6000601f19601f8301169050919050565b6000611a09826119a7565b611a1381856119b2565b9350611a238185602086016119c3565b611a2c816119ed565b840191505092915050565b60006020820190508181036000830152611a5181846119fe565b905092915050565b600073ffffffffffffffffffffffffffffffffffffffff82169050919050565b6000611a8482611a59565b9050919050565b611a9481611a79565b8114611a9f57600080fd5b50565b600081359050611ab181611a8b565b92915050565b6000819050919050565b611aca81611ab7565b8114611ad557600080fd5b50565b600081359050611ae781611ac1565b92915050565b60008060408385031215611b0457611b036118e7565b5b6000611b1285828601611aa2565b9250506020611b2385828601611ad8565b9150509250929050565b611b3681611ab7565b82525050565b6000602082019050611b516000830184611b2d565b92915050565b600080600060608486031215611b7057611b6f6118e7565b5b6000611b7e86828701611aa2565b9350506020611b8f86828701611aa2565b9250506040611ba086828701611ad8565b9150509250925092565b6000819050919050565b611bbd81611baa565b8114611bc857600080fd5b50565b600081359050611bda81611bb4565b92915050565b600060208284031215611bf657611bf56118e7565b5b6000611c0484828501611bcb565b91505092915050565b611c1681611baa565b82525050565b6000602082019050611c316000830184611c0d565b92915050565b60008060408385031215611c4e57611c4d6118e7565b5b6000611c5c85828601611bcb565b9250506020611c6d85828601611aa2565b9150509250929050565b600060ff82169050919050565b611c8d81611c77565b82525050565b6000602082019050611ca86000830184611c84565b92915050565b600060208284031215611cc457611cc36118e7565b5b6000611cd284828501611ad8565b91505092915050565b600060208284031215611cf157611cf06118e7565b5b6000611cff84828501611aa2565b91505092915050565b6000819050919050565b6000611d2d611d28611d2384611a59565b611d08565b611a59565b9050919050565b6000611d3f82611d12565b9050919050565b6000611d5182611d34565b9050919050565b611d6181611d46565b82525050565b6000602082019050611d7c6000830184611d58565b92915050565b60008060408385031215611d9957611d986118e7565b5b6000611da785828601611aa2565b9250506020611db885828601611aa2565b9150509250929050565b7f4e487b7100000000000000000000000000000000000000000000000000000000600052602260045260246000fd5b60006002820490506001821680611e0957607f821691505b602082108103611e1c57611e1b611dc2565b5b50919050565b7f466c6f6320746f6b656e20636f6e7472616374206e6f74207365740000000000600082015250565b6000611e58601b836119b2565b9150611e6382611e22565b602082019050919050565b60006020820190508181036000830152611e8781611e4b565b9050919050565b7f4e6f7420656e6f756768206c6f79616c747920746f6b656e7300000000000000600082015250565b6000611ec46019836119b2565b9150611ecf82611e8e565b602082019050919050565b60006020820190508181036000830152611ef381611eb7565b9050919050565b7f4e487b7100000000000000000000000000000000000000000000000000000000600052601260045260246000fd5b7f4e487b7100000000000000000000000000000000000000000000000000000000600052601160045260246000fd5b6000611f6382611ab7565b9150611f6e83611ab7565b925082611f7e57611f7d611efa565b5b828204905092915050565b611f9281611a79565b82525050565b6000604082019050611fad6000830185611f89565b611fba6020830184611b2d565b9392505050565b7f436f6e76657273696f6e20726174696f206d757374206265206772656174657260008201527f207468616e207a65726f00000000000000000000000000000000000000000000602082015250565b600061201d602a836119b2565b915061202882611fc1565b604082019050919050565b6000602082019050818103600083015261204c81612010565b9050919050565b60006020820190506120686000830184611f89565b92915050565b60006060820190506120836000830186611f89565b6120906020830185611b2d565b61209d6040830184611b2d565b949350505050565b60006040820190506120ba6000830185611f89565b6120c76020830184611c0d565b9392505050565b60006120d982611ab7565b91506120e483611ab7565b92508282019050808211156120fc576120fb611f29565b5b9291505056fea264697066735822122080b0124b8bee742d500b1c237d98cd48f8e435d838f1d6024170568aaba9fad164736f6c63430008180033",
  "linkReferences": {},
  "deployedLinkReferences": {}
}